{
  "contractName": "ItemManager",
  "abi": [
    {
      "anonymous": false,
      "inputs": [
        {
          "indexed": false,
          "internalType": "uint256",
          "name": "_itemIndex",
          "type": "uint256"
        },
        {
          "indexed": false,
          "internalType": "uint256",
          "name": "_step",
          "type": "uint256"
        },
        {
          "indexed": false,
          "internalType": "address",
          "name": "_address",
          "type": "address"
        }
      ],
      "name": "SupplyChainStep",
      "type": "event"
    },
    {
      "inputs": [],
      "name": "_owner",
      "outputs": [
        {
          "internalType": "address",
          "name": "",
          "type": "address"
        }
      ],
      "stateMutability": "view",
      "type": "function"
    },
    {
      "inputs": [],
      "name": "isOwner",
      "outputs": [
        {
          "internalType": "bool",
          "name": "",
          "type": "bool"
        }
      ],
      "stateMutability": "view",
      "type": "function"
    },
    {
      "inputs": [
        {
          "internalType": "uint256",
          "name": "",
          "type": "uint256"
        }
      ],
      "name": "items",
      "outputs": [
        {
          "internalType": "contract Item",
          "name": "_item",
          "type": "address"
        },
        {
          "internalType": "enum ItemManager.SupplyChainSteps",
          "name": "_step",
          "type": "uint8"
        },
        {
          "internalType": "string",
          "name": "_identifier",
          "type": "string"
        }
      ],
      "stateMutability": "view",
      "type": "function"
    },
    {
      "inputs": [
        {
          "internalType": "string",
          "name": "_identifier",
          "type": "string"
        },
        {
          "internalType": "uint256",
          "name": "_priceInWei",
          "type": "uint256"
        }
      ],
      "name": "createItem",
      "outputs": [],
      "stateMutability": "nonpayable",
      "type": "function"
    },
    {
      "inputs": [
        {
          "internalType": "uint256",
          "name": "_index",
          "type": "uint256"
        }
      ],
      "name": "triggerPayment",
      "outputs": [],
      "stateMutability": "payable",
      "type": "function"
    },
    {
      "inputs": [
        {
          "internalType": "uint256",
          "name": "_index",
          "type": "uint256"
        }
      ],
      "name": "triggerDelivery",
      "outputs": [],
      "stateMutability": "nonpayable",
      "type": "function"
    }
  ],
  "bytecode": "0x608060405234801561001057600080fd5b50336000806101000a81548173ffffffffffffffffffffffffffffffffffffffff021916908373ffffffffffffffffffffffffffffffffffffffff160217905550611b6b806100606000396000f3fe6080604052600436106200005c5760003560e01c8063800fb83f14620000615780638c55174214620000815780638f32d59b14620000af578063b2bdfa7b14620000df578063bfb231d2146200010f578063cd31831e1462000155575b600080fd5b6200007f600480360381019062000079919062000c84565b62000183565b005b3480156200008e57600080fd5b50620000ad6004803603810190620000a7919062000c2a565b620004d2565b005b348015620000bc57600080fd5b50620000c76200070b565b604051620000d6919062000e3c565b60405180910390f35b348015620000ec57600080fd5b50620000f762000762565b60405162000106919062000e1f565b60405180910390f35b3480156200011c57600080fd5b506200013b600480360381019062000135919062000c84565b62000786565b6040516200014c9392919062000e96565b60405180910390f35b3480156200016257600080fd5b506200018160048036038101906200017b919062000c84565b6200086d565b005b60006001600083815260200190815260200160002060000160009054906101000a900473ffffffffffffffffffffffffffffffffffffffff1690503373ffffffffffffffffffffffffffffffffffffffff168173ffffffffffffffffffffffffffffffffffffffff16146200022f576040517f08c379a0000000000000000000000000000000000000000000000000000000008152600401620002269062000f1e565b60405180910390fd5b348173ffffffffffffffffffffffffffffffffffffffff16633c8da5886040518163ffffffff1660e01b815260040160206040518083038186803b1580156200027757600080fd5b505afa1580156200028c573d6000803e3d6000fd5b505050506040513d601f19601f82011682018060405250810190620002b2919062000cb0565b14620002f5576040517f08c379a0000000000000000000000000000000000000000000000000000000008152600401620002ec9062000efc565b60405180910390fd5b6000600281111562000330577f4e487b7100000000000000000000000000000000000000000000000000000000600052602160045260246000fd5b6001600084815260200190815260200160002060000160149054906101000a900460ff1660028111156200038d577f4e487b7100000000000000000000000000000000000000000000000000000000600052602160045260246000fd5b14620003d0576040517f08c379a0000000000000000000000000000000000000000000000000000000008152600401620003c79062000f40565b60405180910390fd5b600180600084815260200190815260200160002060000160146101000a81548160ff0219169083600281111562000430577f4e487b7100000000000000000000000000000000000000000000000000000000600052602160045260246000fd5b02179055507fa4035636e99f06b7651a604c1019fa4e8779fe68ef27eeb74dff2de348f6199b826001600085815260200190815260200160002060000160149054906101000a900460ff166002811115620004b4577f4e487b7100000000000000000000000000000000000000000000000000000000600052602160045260246000fd5b83604051620004c69392919062000f62565b60405180910390a15050565b620004dc6200070b565b6200051e576040517f08c379a0000000000000000000000000000000000000000000000000000000008152600401620005159062000eda565b60405180910390fd5b60003082600254604051620005339062000acc565b620005419392919062000e59565b604051809103906000f0801580156200055e573d6000803e3d6000fd5b5090508060016000600254815260200190815260200160002060000160006101000a81548173ffffffffffffffffffffffffffffffffffffffff021916908373ffffffffffffffffffffffffffffffffffffffff160217905550600060016000600254815260200190815260200160002060000160146101000a81548160ff021916908360028111156200061b577f4e487b7100000000000000000000000000000000000000000000000000000000600052602160045260246000fd5b02179055508260016000600254815260200190815260200160002060010190805190602001906200064e92919062000ada565b507fa4035636e99f06b7651a604c1019fa4e8779fe68ef27eeb74dff2de348f6199b60025460016000600254815260200190815260200160002060000160149054906101000a900460ff166002811115620006d2577f4e487b7100000000000000000000000000000000000000000000000000000000600052602160045260246000fd5b83604051620006e49392919062000f62565b60405180910390a16002600081548092919062000701906200118e565b9190505550505050565b60008060009054906101000a900473ffffffffffffffffffffffffffffffffffffffff1673ffffffffffffffffffffffffffffffffffffffff163373ffffffffffffffffffffffffffffffffffffffff1614905090565b60008054906101000a900473ffffffffffffffffffffffffffffffffffffffff1681565b60016020528060005260406000206000915090508060000160009054906101000a900473ffffffffffffffffffffffffffffffffffffffff16908060000160149054906101000a900460ff1690806001018054620007e49062001122565b80601f0160208091040260200160405190810160405280929190818152602001828054620008129062001122565b8015620008635780601f10620008375761010080835404028352916020019162000863565b820191906000526020600020905b8154815290600101906020018083116200084557829003601f168201915b5050505050905083565b620008776200070b565b620008b9576040517f08c379a0000000000000000000000000000000000000000000000000000000008152600401620008b09062000eda565b60405180910390fd5b60016002811115620008f4577f4e487b7100000000000000000000000000000000000000000000000000000000600052602160045260246000fd5b6001600083815260200190815260200160002060000160149054906101000a900460ff16600281111562000951577f4e487b7100000000000000000000000000000000000000000000000000000000600052602160045260246000fd5b1462000994576040517f08c379a00000000000000000000000000000000000000000000000000000000081526004016200098b9062000f40565b60405180910390fd5b60026001600083815260200190815260200160002060000160146101000a81548160ff02191690836002811115620009f5577f4e487b7100000000000000000000000000000000000000000000000000000000600052602160045260246000fd5b02179055507fa4035636e99f06b7651a604c1019fa4e8779fe68ef27eeb74dff2de348f6199b816001600084815260200190815260200160002060000160149054906101000a900460ff16600281111562000a79577f4e487b7100000000000000000000000000000000000000000000000000000000600052602160045260246000fd5b6001600085815260200190815260200160002060000160009054906101000a900473ffffffffffffffffffffffffffffffffffffffff1660405162000ac19392919062000f62565b60405180910390a150565b61076b80620013cb83390190565b82805462000ae89062001122565b90600052602060002090601f01602090048101928262000b0c576000855562000b58565b82601f1062000b2757805160ff191683800117855562000b58565b8280016001018555821562000b58579182015b8281111562000b5757825182559160200191906001019062000b3a565b5b50905062000b67919062000b6b565b5090565b5b8082111562000b8657600081600090555060010162000b6c565b5090565b600062000ba162000b9b8462000fc8565b62000f9f565b90508281526020810184848401111562000bba57600080fd5b62000bc7848285620010dd565b509392505050565b600082601f83011262000be157600080fd5b813562000bf384826020860162000b8a565b91505092915050565b60008135905062000c0d81620013b0565b92915050565b60008151905062000c2481620013b0565b92915050565b6000806040838503121562000c3e57600080fd5b600083013567ffffffffffffffff81111562000c5957600080fd5b62000c678582860162000bcf565b925050602062000c7a8582860162000bfc565b9150509250929050565b60006020828403121562000c9757600080fd5b600062000ca78482850162000bfc565b91505092915050565b60006020828403121562000cc357600080fd5b600062000cd38482850162000c13565b91505092915050565b62000ce7816200101a565b82525050565b62000cf8816200102e565b82525050565b62000d098162001079565b82525050565b62000d1a81620010a1565b82525050565b62000d2b81620010c9565b82525050565b600062000d3e8262000ffe565b62000d4a818562001009565b935062000d5c818560208601620010ec565b62000d678162001298565b840191505092915050565b600062000d8160208362001009565b915062000d8e82620012a9565b602082019050919050565b600062000da860128362001009565b915062000db582620012d2565b602082019050919050565b600062000dcf602b8362001009565b915062000ddc82620012fb565b604082019050919050565b600062000df660238362001009565b915062000e03826200134a565b604082019050919050565b62000e19816200106f565b82525050565b600060208201905062000e36600083018462000cdc565b92915050565b600060208201905062000e53600083018462000ced565b92915050565b600060608201905062000e70600083018662000cfe565b62000e7f602083018562000e0e565b62000e8e604083018462000e0e565b949350505050565b600060608201905062000ead600083018662000d0f565b62000ebc602083018562000d20565b818103604083015262000ed0818462000d31565b9050949350505050565b6000602082019050818103600083015262000ef58162000d72565b9050919050565b6000602082019050818103600083015262000f178162000d99565b9050919050565b6000602082019050818103600083015262000f398162000dc0565b9050919050565b6000602082019050818103600083015262000f5b8162000de7565b9050919050565b600060608201905062000f79600083018662000e0e565b62000f88602083018562000e0e565b62000f97604083018462000cdc565b949350505050565b600062000fab62000fbe565b905062000fb9828262001158565b919050565b6000604051905090565b600067ffffffffffffffff82111562000fe65762000fe562001269565b5b62000ff18262001298565b9050602081019050919050565b600081519050919050565b600082825260208201905092915050565b600062001027826200104f565b9050919050565b60008115159050919050565b60008190506200104a8262001399565b919050565b600073ffffffffffffffffffffffffffffffffffffffff82169050919050565b6000819050919050565b600062001086826200108d565b9050919050565b60006200109a826200104f565b9050919050565b6000620010ae82620010b5565b9050919050565b6000620010c2826200104f565b9050919050565b6000620010d6826200103a565b9050919050565b82818337600083830152505050565b60005b838110156200110c578082015181840152602081019050620010ef565b838111156200111c576000848401525b50505050565b600060028204905060018216806200113b57607f821691505b602082108114156200115257620011516200123a565b5b50919050565b620011638262001298565b810181811067ffffffffffffffff8211171562001185576200118462001269565b5b80604052505050565b60006200119b826200106f565b91507fffffffffffffffffffffffffffffffffffffffffffffffffffffffffffffffff821415620011d157620011d0620011dc565b5b600182019050919050565b7f4e487b7100000000000000000000000000000000000000000000000000000000600052601160045260246000fd5b7f4e487b7100000000000000000000000000000000000000000000000000000000600052602160045260246000fd5b7f4e487b7100000000000000000000000000000000000000000000000000000000600052602260045260246000fd5b7f4e487b7100000000000000000000000000000000000000000000000000000000600052604160045260246000fd5b6000601f19601f8301169050919050565b7f4f776e61626c653a2063616c6c6572206973206e6f7420746865206f776e6572600082015250565b7f4e6f742066756c6c792070616964207965740000000000000000000000000000600082015250565b7f4f6e6c79206974656d732061726520616c6c6f77656420746f2075706461746560008201527f207468656d73656c766573000000000000000000000000000000000000000000602082015250565b7f4974656d206973206675727468657220696e2074686520737570706c7920636860008201527f61696e0000000000000000000000000000000000000000000000000000000000602082015250565b60038110620013ad57620013ac6200120b565b5b50565b620013bb816200106f565b8114620013c757600080fd5b5056fe608060405234801561001057600080fd5b5060405161076b38038061076b833981810160405281019061003291906100b3565b816000819055508060028190555082600360006101000a81548173ffffffffffffffffffffffffffffffffffffffff021916908373ffffffffffffffffffffffffffffffffffffffff16021790555050505061017e565b60008151905061009881610150565b92915050565b6000815190506100ad81610167565b92915050565b6000806000606084860312156100c857600080fd5b60006100d686828701610089565b93505060206100e78682870161009e565b92505060406100f88682870161009e565b9150509250925092565b600061010d82610126565b9050919050565b600061011f82610102565b9050919050565b600073ffffffffffffffffffffffffffffffffffffffff82169050919050565b6000819050919050565b61015981610114565b811461016457600080fd5b50565b61017081610146565b811461017b57600080fd5b50565b6105de8061018d6000396000f3fe6080604052600436106100385760003560e01c80632986c0e5146102505780633c8da5881461027b57806383d12eef146102a657610241565b36610241576000543414610081576040517f08c379a0000000000000000000000000000000000000000000000000000000008152600401610078906103c3565b60405180910390fd5b6000600154146100c6576040517f08c379a00000000000000000000000000000000000000000000000000000000081526004016100bd906103a3565b60405180910390fd5b34600160008282546100d89190610445565b925050819055506000600360009054906101000a900473ffffffffffffffffffffffffffffffffffffffff1673ffffffffffffffffffffffffffffffffffffffff163460025460405160240161012e9190610403565b6040516020818303038152906040527f800fb83f000000000000000000000000000000000000000000000000000000007bffffffffffffffffffffffffffffffffffffffffffffffffffffffff19166020820180517bffffffffffffffffffffffffffffffffffffffffffffffffffffffff83818316178352505050506040516101b8919061038c565b60006040518083038185875af1925050503d80600081146101f5576040519150601f19603f3d011682016040523d82523d6000602084013e6101fa565b606091505b505090508061023e576040517f08c379a0000000000000000000000000000000000000000000000000000000008152600401610235906103e3565b60405180910390fd5b50005b34801561024d57600080fd5b50005b34801561025c57600080fd5b506102656102d1565b6040516102729190610403565b60405180910390f35b34801561028757600080fd5b506102906102d7565b60405161029d9190610403565b60405180910390f35b3480156102b257600080fd5b506102bb6102dd565b6040516102c89190610403565b60405180910390f35b60025481565b60005481565b60015481565b60006102ee8261041e565b6102f88185610429565b93506103088185602086016104a5565b80840191505092915050565b6000610321601583610434565b915061032c82610507565b602082019050919050565b6000610344602183610434565b915061034f82610530565b604082019050919050565b6000610367601583610434565b91506103728261057f565b602082019050919050565b6103868161049b565b82525050565b600061039882846102e3565b915081905092915050565b600060208201905081810360008301526103bc81610314565b9050919050565b600060208201905081810360008301526103dc81610337565b9050919050565b600060208201905081810360008301526103fc8161035a565b9050919050565b6000602082019050610418600083018461037d565b92915050565b600081519050919050565b600081905092915050565b600082825260208201905092915050565b60006104508261049b565b915061045b8361049b565b9250827fffffffffffffffffffffffffffffffffffffffffffffffffffffffffffffffff038211156104905761048f6104d8565b5b828201905092915050565b6000819050919050565b60005b838110156104c35780820151818401526020810190506104a8565b838111156104d2576000848401525b50505050565b7f4e487b7100000000000000000000000000000000000000000000000000000000600052601160045260246000fd5b7f4974656d20697320616c72656164792070616964210000000000000000000000600082015250565b7f576520646f6e277420737570706f7274207061727469616c207061796d656e7460008201527f7300000000000000000000000000000000000000000000000000000000000000602082015250565b7f44656c697665727920646964206e6f7420776f726b000000000000000000000060008201525056fea26469706673582212203f52f3644c243cfe013972835698a85cc05b2e2298ac5e1eeacb1efc775e571464736f6c63430008010033a26469706673582212208a9202fdeb91e5992de3631b911f9f7bc353eb9012db05ce6209b169017fcc4064736f6c63430008010033",
  "immutableReferences": {},
  "source": "//SPDX-License-Identifier: MIT\r\npragma solidity 0.8.1;\r\n\r\nimport \"./Ownable.sol\";\r\nimport \"./Item.sol\";\r\n\r\ncontract ItemManager is Ownable {\r\n\r\n    struct S_Item {\r\n        Item _item;\r\n        ItemManager.SupplyChainSteps _step;\r\n        string _identifier;\r\n    }\r\n    mapping(uint => S_Item) public items;\r\n    uint index;\r\n\r\n    enum SupplyChainSteps {Created, Paid, Delivered}\r\n\r\n    event SupplyChainStep(uint _itemIndex, uint _step, address _address);\r\n\r\n    function createItem(string memory _identifier, uint _priceInWei) public onlyOwner {\r\n        Item item = new Item(this, _priceInWei, index);\r\n        items[index]._item = item;\r\n        items[index]._step = SupplyChainSteps.Created;\r\n        items[index]._identifier = _identifier;\r\n        emit SupplyChainStep(index, uint(items[index]._step), address(item));\r\n        index++;\r\n    }\r\n\r\n    function triggerPayment(uint _index) public payable {\r\n        Item item = items[_index]._item;\r\n        require(address(item) == msg.sender, \"Only items are allowed to update themselves\");\r\n        require(item.priceInWei() == msg.value, \"Not fully paid yet\");\r\n        require(items[_index]._step == SupplyChainSteps.Created, \"Item is further in the supply chain\");\r\n        items[_index]._step = SupplyChainSteps.Paid;\r\n        emit SupplyChainStep(_index, uint(items[_index]._step), address(item));\r\n    }\r\n\r\n    function triggerDelivery(uint _index) public onlyOwner  {\r\n        require(items[_index]._step == SupplyChainSteps.Paid, \"Item is further in the supply chain\");\r\n        items[_index]._step = SupplyChainSteps.Delivered;\r\n        emit SupplyChainStep(_index, uint(items[_index]._step), address(items[_index]._item));\r\n    }\r\n}",
  "sourcePath": "C:\\Users\\AndrewYang\\truffle\\SupplyChain\\contracts\\ItemManager.sol",
  "compiler": {
    "name": "solc",
    "version": "0.8.1+commit.df193b15.Emscripten.clang"
  },
  "schemaVersion": "3.4.1",
  "updatedAt": "2021-05-30T08:57:29.050Z",
  "devdoc": {
    "kind": "dev",
    "methods": {
      "isOwner()": {
        "details": "Returns true if the caller is the current owner."
      }
    },
    "version": 1
  },
  "userdoc": {
    "kind": "user",
    "methods": {},
    "version": 1
  }
}